:020000022000DC
:106000000000042079460700B9460700BB46070098
:10601000BD460700BF460700C1460700000000005C
:10602000000000000000000000000000F54507002F
:10603000C54607000000000015460700C9460700D6
:10604000AD480700CB460700F9280700A96B0300FD
:10605000B56B0300CB460700112B0700CB460700AA
:10606000CB460700CB460700CB460700CB460700D0
:10607000CB460700CB460700CB460700CB460700C0
:10608000CB4607008D430700CB460700CB460700F1
:10609000CB460700CB46070019510300CB4607004B
:1060A000CB460700CB460700CB460700CB46070090
:1060B000CB460700CB4607000000000000000000B0
:1060C000CB460700CB460700CB460700055107002B
:1060D000CB460700CB460700CB460700D16B02003A
:1060E00005290700E54C0700CB460700000000002B
:1060F00000000000CB4607000000000035510700FB
:10610000000000000000000000000000000000008F
:10611000000000000000000000000000000000007F
:10612000000000000000000000000000000000006F
:10613000000000000000000000000000000000005F
:10614000000000000000000000000000000000004F
:10615000000000000000000000000000000000003F
:10616000000000000000000000000000000000002F
:10617000000000000000000000000000000000001F
:10618000000000000000000000000000000000000F
:1061900000000000000000000000000000000000FF
:1061A00000000000000000000000000000000000EF
:1061B00000000000000000000000000000000000DF
:1061C00000000000000000000000000000000000CF
:1061D00000000000000000000000000000000000BF
:1061E00000000000000000000000000000000000AF
:1061F000000000000000000000000000000000009F
:1062000010B5054C237833B9044B13B10448AFF3F0
:1062100000800123237010BD806500200000000075
:10622000A4590B0008B5034B1BB103490348AFF356
:10623000008008BD0000000084650020A4590B0008
:10624000154B002B08BF134B9D46A3F5803A002148
:106250008B460F461348144A121A73F0BCF90F4BC1
:10626000002B00D098470E4B002B00D09847002001
:10627000002104000D000D48002802D00C48AFF3A7
:10628000008072F079FF200029004EF037FA72F09A
:10629000CBFB00BF0000080000000420000000004D
:1062A0000000000080650020CC0D012000000000EF
:1062B000000000000146014800F088BAB8650020DF
:1062C00038B5054B1D780024E0B2A84203D200F097
:1062D00057FD0134F8E738BDB46500202DE9F047DB
:1062E000804692B099461546002A00F09C80514B9A
:1062F00093F81C6193F81EA1B21C83F81C2193F83B
:106300001D21541C911C42F0800764F07F040AF1A7
:10631000010283F81D11E4B283F81E2142220021FC
:1063200001A873F058F9002D79D0B9F1410F7FD948
:1063300040F20940ADF80C0040F20120721C8DF8CB
:1063400006608DF80E60ADF81000DFF8ECC08DF837
:1063500026602420032698F814108DF8160040F6C5
:106360000833CDF818C08DF820004FF0010C8DF8DF
:1063700024008DF82B6006200826D2B2ADF8043038
:106380008DF81410022305218DF81CC08DF825000E
:106390004FF0040C40F207508DF82C604FF411665A
:1063A0008DF807308DF808308DF809308DF81230EF
:1063B0008DF815108DF81E208DF821308DF82230C3
:1063C0008DF823108DF82720ADF828008DF83120A6
:1063D0008DF81FC08DF82A70ADF82E608DF830C092
:1063E0008DF833308DF83B3040230A228DF83C3055
:1063F00007238DF83420ADF838008DF83F308DF844
:10640000401044F2020342220DEB0C0128468DF8A5
:106410003AA08DF84140ADF8423073F0B8F8422010
:1064200012B0BDE8F087924614461746164675E747
:106430000020F5E7B865002020010524A0F1100038
:10644000FFF74CBF13B502AB026803F8011D546897
:1064500019460122A04702B010BD10B5407DFF28AB
:1064600007D000F05DFC044608B94EF0ADFF2046B1
:1064700010BD0020FCE707B5407DFF2804D14FF098
:10648000FF3003B05DF804FB0DF1070100F06EFC76
:106490000028F4D09DF80700F3E707B5407DFF28FA
:1064A0000AD001220DF1070100F046FC20B19DF851
:1064B000070003B05DF804FB4FF0FF30F9E7407DC3
:1064C000FF2801D000F05CBC7047407DFF2801D060
:1064D00000F0BABC00207047F8B5437DFF2B06469C
:1064E0000F46154612D014465CB1707D00F0F2FBE9
:1064F00038B122463946707D00F086FC241A0744E4
:1065000001D1281BF8BD4EF05FFFEDE70020F9E751
:1065100000214FF47A72C0E90112054A02F1080124
:10652000303202614FF47F4201608282704700BFC7
:1065300004110A0010B5437DFF2B11D1094A1378CD
:1065400073B900F11004012111704375064920460A
:1065500000F0D6F921460548BDE8104000F018B912
:1065600010BD00BFB4650020F4100A00B86500201B
:1065700010B50446044800F0B9F8044B00221A7024
:10658000FF23637510BD00BFB8650020B46500200F
:1065900010B5407DFF2807D000F09CFB044608B9E9
:1065A0004EF012FF204610BD0024FBE707B549B9A5
:1065B00040B9694600F0A4FB009BB3F5966F01D18A
:1065C00000F01CFB03B05DF804FB00000148FFF77E
:1065D0009FBF00BF9C6500202DE9F0410022394E8D
:1065E0001546435D4719002B69D003F14004E4B21E
:1065F000012C4FD9F42B4DD81C061BD40124A3F534
:106600005847B7F5006F45D3B3F5803F254450D3C5
:106610001E2A54DCA3F5803354009F0A0C44C3F3B4
:106620000903A7F52057A3F5105321F81270023281
:106630006380D6E703F0E004C02C14D103F01F03FD
:10664000022407F1010E07EB040CF4451BD01EF8E1
:10665000017B07F0C008B8F1800F1BD107F03F079E
:1066600047EA8313F1E703F0F004E02C03D103F0D1
:106670000F030324E5E703F0F804F02C0AD103F03C
:1066800007030424DDE7022C06D1A3F18007B7F548
:10669000F06FB4D30135A4E7032C04D1A3F5006750
:1066A000B7F5784FF5E7A3F58034B442F2D8042467
:1066B000A5E7202A03D021F81230013291E71046D5
:1066C000BDE8F081FFFF0F0090F850310B2B09D887
:1066D00051B15A1C80F8502103F1480240F82210B1
:1066E000184670470023FBE70B46F9E7F0B5234B4C
:1066F00089B003AA044603F11007154618685968C3
:10670000164603C60833BB423246F7D11B88338096
:106710000FCD26460FC61A4A2B6810685168338081
:106720006B4603C36B4603CB164BC4F818314FF4CA
:106730008073157AA4F81C3104F118020123A061BA
:10674000E161626184F81E3184F82050202200212A
:1067500004F5987072F03FFF40F20943C4F820310D
:10676000094BC4F82431094BC4F828310023C4F87C
:106770002C31042384F8503109B0F0BD38110A00DF
:106780004A110A000900000163110A006A110A0097
:1067900038B504460846B4F81821B4F81A316169CE
:1067A00005689B1A2D680A449BB294F81C11A847EF
:1067B00058B1B4F818311844636980B2A4F81801CC
:1067C000588094F81C211A71012038BD70B5054617
:1067D0000E460124FFF78AFF40F2EF23AB804FF40F
:1067E000E131AC710348FFF7A5FE304600F0F4F943
:1067F000204670BD9C6500202DE9F041D0F82C4169
:1068000088B08D1C002C3AD1684600F0F9F9234677
:106810000246D9B28A4205F104052BD91A4C04AFBD
:1068200004F110083E46C64620686168BC46ACE8E4
:106830000300083444456746F6D11DF80370124C36
:1068400007F00F0108A8014411F8101C25F8021CDC
:1068500020686168B446ACE80300083474456646B5
:10686000F6D108A901EB1717013317F8101C25F80A
:10687000041CCEE75000C0B208B0BDE8F081294644
:106880002046FFF7A9FEF6E753110A0010B50446AB
:1068900079B103291BD090F850318B421CD901F1FA
:1068A000480300F5AA7150F82300FFF795FEC0B227
:1068B00004E0D0F82031A0F854310120013040002C
:1068C00040F44070A4F8520104F5A97010BD00F521
:1068D000A971FFF791FFF1E70020F7E70048704743
:1068E000B8650020014B5869704700BFB8650020AB
:1068F0000A4601460148FFF7C9BF00BFB86500203E
:1069000010B504460248FFF7DFFE207110BD00BF3E
:10691000B8650020024B53F8200000B1C0687047F2
:106920004C67002030B4094C54F820000D46114645
:106930001A46BDF8083028B104691CB12846A4469F
:1069400030BC6047002030BC704700BF4C6700205F
:1069500030B4084C54F820000D4611461A46BDF8D4
:10696000083028B144691CB12846A44630BC6047B1
:1069700030BC70474C67002000207047024B1868FD
:1069800008B190F860007047546700202DE9F84383
:1069900099461E4B17461A688846002A34D02C2385
:1069A00003FB00201A4B066A456A846A002E08BF62
:1069B0001E46184B002D08BF1D46174B3046002CB5
:1069C00008BF1C4674F0B6FC08280246314628BFB2
:1069D0000822404672F0DBFD284674F0ABFC10281C
:1069E0000246294628BF1022384672F0D0FD2046C4
:1069F00074F0A0FC042802462146484628BF042221
:106A0000BDE8F84372F0C3BDBDE8F88354670020C9
:106A10007F110A0088110A0095110A0070B50E4D09
:106A20002C680646A4B12C2303FB0044636913B110
:106A3000984784F832002A682C2303FB062393F836
:106A400032403CB923463A220221304600F066FF2C
:106A5000204670BD0124FBE754670020054B1B68EE
:106A600010B533B12C2404FB0030C36A0B60038ED5
:106A7000138010BD5467002008B520220023052193
:106A800000F04CFF4FF0FF3008BD000030B404466A
:106A900008461146074A156845B12C2202FB0454EA
:106AA000E4691CB11A46234630BC1847012030BCAB
:106AB000704700BF5467002030B4044608460849B8
:106AC000029A0D6845B12C2101FB0454A4681CB145
:106AD0001946234630BC18474FF0FF3030BC704792
:106AE0005467002030B4044608460849029A0D68ED
:106AF00045B12C2101FB0454E4681CB1194623461E
:106B000030BC18474FF0FF3030BC7047546700204E
:106B1000044B1B682BB12C2202FB0030036903B12C
:106B20001847704754670020054B1B682BB12C2277
:106B300002FB0030836903B118470120704700BF92
:106B4000546700200368DB69184703681B6918470E
:106B500010B404686469A4465DF8044B6047036898
:106B60001B6A184710B40468646AA4465DF8044BB5
:106B7000604704F089B8000007B5134B402283F842
:106B80002723002002F05EFC4FF0804302A800247F
:106B9000D3F8385400F8084D4DF020FE02A80B4BF6
:106BA00040F8043D4DF078FE4DF040FEEB0702D575
:106BB000204604F069F800214FF0FF3002F09EFEFD
:106BC000FFF77EFBF7E700BF00E100E0736B020018
:106BD000002003F05FBE000007B500230322CDE9CB
:106BE000002304490448C8224CF0C9FD03B05DF8F5
:106BF00004FB00BF99110A00796B02004EF0ACBE95
:106C00004FF08052536E1BBA0360136E1BBA436081
:106C100008207047004870479E110A0070B51A4D51
:106C20000B4611462A686AB3012B01D0012070BDC2
:106C30000C78C4F34114012C13D0022C22D14C78CF
:106C4000012C07D0022CF1D18B88072B1AD10F4AC7
:106C5000138902E09269AAB11378BDE8704003F08D
:106C600015BA4B78222BE1D14B88003318BF012392
:106C7000537503F0F3F92A68D369002BD6D0507D01
:106C80009847D3E70020D2E758670020046000202F
:106C900070B500F110050446284602F0F0FA3F28CE
:106CA00015D9E178002002F08DFD80B1284602F070
:106CB000E6FA3F28E17807D904F536724023002030
:106CC000BDE8704002F09EBD002002F08BFD002068
:106CD00070BD000010B5044602F09CFB08B900200E
:106CE00010BD02F09FFB0028F9D1044B4FF45672FF
:106CF00002FB0434207900F00100F1E75C6700201A
:106D0000064A4FF4567303FB002000F10803806825
:106D100008609A889B798B718A8070475C67002035
:106D200008B5044A4FF4567303FB0020103002F0FC
:106D30008FFA08BD5C67002070B54FF456730A4C9B
:106D400058434FF6FE764FF6FF732518B24288BFC0
:106D50001A46103092B2204402F0A3FA04462846A4
:106D6000FFF796FF204670BD5C670020034A4FF492
:106D7000567303FB0020103002F096BA5C670020C7
:106D80002DE9F041054602F045FB10B90020BDE8B1
:106D9000F08102F047FB07460028F7D14FF4567404
:106DA0006C43174D04F124062E44304602F050FA8D
:106DB0000028EBD005EB0408384698F8021002F0E2
:106DC00001FD0028E2D004F54674254429464022FE
:106DD000304602F066FA98F80210044658B10346AD
:106DE0002A46384602F00EFD38B9064B1B68DB0711
:106DF000CCD500BECBE702F0F5FC2046C7E700BFCC
:106E00005C670020F0ED00E00E4B70B54FF4567457
:106E100004FB003405464FF6FF734FF6FE708242C6
:106E200088BF1A46243492B2204602F056FA06462B
:106E3000204602F00DFA3F2802D92846FFF7A0FFAE
:106E4000304670BD5C67002008B5044A4FF45673A5
:106E500003FB0020243002F012FA08BD5C6700201A
:106E600073B51A4C4FF456720021204672F0B3FBF2
:106E7000FF2363714FF4E1330026A360082301254B
:106E8000A37304F13801009601234FF4807204F1DA
:106E9000100002F0A8F92B464FF4807204F59C71A3
:106EA000009504F1240002F09EF904F50E712846C5
:106EB0004CF016F904F52271C4E9076028464CF03D
:106EC0000FF9C4E90C0602B070BD00BF5C6700207A
:106ED00010B5094C00232360237104F11000243401
:106EE00002F001FA204602F0FEF920460121BDE839
:106EF000104002F018BA00BF5C670020F7B54B796C
:106F0000022B074603D00024204603B0F0BD8B7946
:106F1000022BF8D11F4EB3787BBB8B7833700D7882
:106F200009240D4403E02B781C44A4B21D446B7863
:106F3000242B1BD19442F6D96B78042B12D16B7998
:106F40000A2B0FD1144B2E780193013300930223A7
:106F50001A46A919384602F001FC70B10E3416FA2F
:106F600084F4A4B20B48FFF793FECDE7052BE3D1E1
:106F70002946384602F0CEFB28B9084B1B68DB07D0
:106F8000C1D500BEBFE7AB7873702B781C44A4B2A8
:106F90001D44D1E75C6700205E670020F0ED00E053
:106FA00038B50B461146127802F06002202A47D10C
:106FB000244A8C881578A54242D14C78203C032C79
:106FC0003ED8DFE804F002141731012B05D1072366
:106FD0001D4A03F05BF8012038BD032BFBD11B4B8E
:106FE000002BF8D018490020AFF30080F3E7012B05
:106FF000F1D1ECE7012B02D103F030F8EBE7032BE2
:10700000E9D14C881471E14301F00101104802F00C
:107010008AF9104B002BDED0C4F3400204F00101CA
:107020000020FFF7C3FAD6E7012BE5D0032BD2D11E
:10703000094B002BCFD049880020AFF30080CAE76E
:107040000020C9E75C6700206467002000000000A2
:1070500080670020AD650200000000002DE9F047C8
:107060001C46354BDA788A4280460F461D4607D0CB
:107070009B788B4256D1AB78BB4231D0012458E08B
:1070800003F5367103F11000A2B202F026F92B4B82
:107090002BB92B4BE3B92848FFF7FAFDEBE76B79E7
:1070A000FF2BF6D005F2D72606EB0409A6F2C72A75
:1070B0004E45EED06A7916F8013F9A42F8D1504613
:1070C00002F0D6F80028F3D16979AFF30080EFE73A
:1070D0001C4802F0CDF80028DDD1AFF30080DAE7DC
:1070E000194B13B10020AFF300800020FFF748FEDA
:1070F0000028C3D1154802F0ABF80028BED1002CFF
:10710000BCD014F03F06B9D1A978404602F05AFB32
:1071100004460028B2D033463246A978404602F0F1
:1071200071FB06E00A4B1C6814F0010401D000BE9C
:1071300000242046BDE8F0875C67002000000000C6
:10714000000000006C670020000000008067002045
:10715000F0ED00E04FF48C720021014872F03BBA70
:10716000B46A00200020FFF7F5BF00002DE9F347C7
:107170004B79032B81460E4604D00024204602B0F2
:10718000BDE8F0870879C0EBC0041234A4B2944281
:1071900025D8294B5A781F462AB193F88D30F3B978
:1071A0004FF0010800E090463378F1188C254A78BA
:1071B000212A05FB08F512D107EB050A0246CAF899
:1071C000881016F803C06B1C3B440193AB1C3B4476
:1071D000009361440323484602F0C0FA28B9174BD4
:1071E0001B68DA07C9D500BEC7E7B379012B04BF16
:1071F000F3798AF803308C2303FB08F807EB0803C4
:1072000001221A71B27807F80820D3F888209978FB
:10721000B2F80720DA800029B0D005F148024023F7
:107220003A44484602F0EEFA0028A7D1034B1B6807
:10723000DB07A3D500BEA1E7B46A0020F0ED00E0B3
:1072400013782DE9F743154603F01F02012A07467C
:107250000C4601D0002482E07E4EA9883078C9B265
:107260008842B1460BD096F88C008842F2D116467F
:1072700013F060032AD1012C03D001246FE0002613
:10728000F6E76B78062BE5D16B881B0A212B0ED114
:107290008C2202FB0696D6F88820002ADAD01378D2
:1072A0002946384603B0BDE8F04302F0EFBE222B7A
:1072B000D0D13046FFF72EFB8C2202FB0696024609
:1072C000F3882946384602F0E1FE48E0202BC1D180
:1072D0006B78013B0A2BBDD801A252F823F000BF06
:1072E0000D73020007740200197402005572020047
:1072F000557202005572020055720200557202006A
:107300007B730200D97302002B740200012CB4D1EC
:1073100008234FF08C0C1CFB063CEB886988402B43
:107320004FEA1122184628BF402011F0FF0109EB57
:107330000C0818D0012B16D9013809F80C1008F1E7
:10734000010380B200903046FFF7ECFA0444A4B287
:1073500064B9414B1B68DB077FF57CAF00BE20465C
:1073600003B0BDE8F08343460024EBE723464246E2
:107370002946384602F08AFE7FE7012C08D1EB88C7
:10738000402B3FF667AF8C2202FB0692483298E70B
:10739000032C7FF472AF6988ED884823402D4FF0AD
:1073A0008C044FEA112214FB0634284628BF4020E3
:1073B00011F0FF0109EB040309D0012D07D919F8D9
:1073C00004408C4202BF00F1FF30013380B20090D4
:1073D0003046FFF7BDFA50E7012C7FF44EAF6988C5
:1073E0001E4B8C2202FB0699090A89F805102BB165
:1073F0003046AFF3008000283FF42CAF29463846D2
:1074000002F02CFE39E7012C7FF437AF8C2202FB0F
:1074100006922346053254E7012C7FF42EAF8C22CE
:1074200002FB0692234604324BE7012CE6D0032CE4
:107430007FF423AF69880A4B8C2202FB0699C9B2FC
:1074400089F80410002B3FF418AF3046AFF30080EA
:1074500013E700BFB46A0020F0ED00E00000000078
:107460000000000073B5224C0646A078627888427E
:1074700012D0914210D094F88E0094F88D2088425A
:1074800012D0914210D01B4B1B68DA0702D40020A7
:1074900002B070BD00BEFAE7002062788A420CD1CB
:1074A000154A22B90120F3E78C340120F5E79AB29E
:1074B00004F10801AFF30080F4E7A2788A42F1D129
:1074C000002204F148059BB2114600932B46FFF7BA
:1074D0003FFA40232A46A178304602F093F900286B
:1074E000E0D1044B1B68DB07D1D500BED0E700BF5D
:1074F000B46A0020F0ED00E00000000070B500F17B
:1075000010050446284601F0BAFE3F2817D9A17895
:10751000002002F057F990B1284601F0B0FE3F2854
:10752000A17807D904F5EC7240230020BDE8704033
:1075300002F068B90020BDE8704002F053B970BD98
:1075400070B500F124040546204601F081FE08B91B
:10755000002070BD6978002002F034F90028F7D0CF
:1075600005F5067631462046402201F09AFE6978FC
:10757000044658B103463246002002F043F938B9B8
:10758000044B1B68DB07E3D500BEE2E702F02AF9F3
:107590002046DEE7F0ED00E037B5154C00254FF44E
:1075A00016720021204672F016F804F13801009599
:1075B0000123802204F1100001F015FE0123802236
:1075C00004F1B801009504F1240001F00CFE04F56B
:1075D0009C7101204BF084FD04F5C471C4E907508F
:1075E00001204BF07DFDC4E90C0503B030BD00BFA8
:1075F0004809012010B5084C10220021204671F0E6
:10760000EAFF04F1100001F06EFE04F12400BDE871
:10761000104001F068BE00BF480901202DE9F04785
:107620004B79012B8146924603D000242046BDE8C9
:10763000F0878B79012BF8D1CB79002BF5D10E781F
:10764000B4B20E447378242B06D15445EDD8337868
:107650001C44A4B21E44F5E7042BE6D17379012B38
:10766000E3D1B379032BE0D1F379002BDDD11C4FAB
:107670007B782BB11B4B1B68DB07D6D500BED4E74C
:1076800097F80280B8F1000FF4D1B3783B703578E9
:107690002C44A4B235441BE054451CD86B78052B10
:1076A00012D12946484602F035F80028E2D0AB78DE
:1076B000DA0914BF7B70BB702B7808F101081C44F9
:1076C000A4B21D445FFA88F82B781C44A4B21D4470
:1076D00033794345E0D80248FFF710FFA6E700BF23
:1076E00048090120F0ED00E000207047F8B51E4D7C
:1076F0001E46AB788B4207461CD06B788B422AD152
:107700002846FFF71DFF20BB05F1240001F0A0FD76
:10771000F8B9F6B116F03F061BD16978384602F089
:1077200051F80446A8B1334632466978384602F02B
:1077300069F817E0B2B205F5EC7105F1100001F03F
:10774000CCFD0A4B13B10020AFF300800648FFF7D1
:10775000D5FE012406E0064B1C6814F0010401D09C
:1077600000BE00242046F8BD4809012000000000AA
:10777000F0ED00E0034B43F602229A87002283F8E3
:107780003E207047CC6D002030B4104B022483F8AB
:107790002C109A6B996883F8304093F83C408A1A11
:1077A0009A6224B942F205059D8783F83E4051B1A3
:1077B0004AB11A7BD20914BF93F82E1093F82F10F8
:1077C00030BC02F05FB830BC704700BFCC6D002009
:1077D00038B5144B144C054673B1607BFFF7A4F920
:1077E00050B942F2077384F83E00A387284601216E
:1077F000BDE83840FFF7C8BFA26BA36894F82F100C
:107800009B1AB3F5007F28BF4FF400739BB2074A61
:10781000284601F0F7FF20B9054B1B68DB0700D5B0
:1078200000BE38BD296B0200CC6D0020CC6B00205F
:10783000F0ED00E0F0B5254CE28AA36852BA92B2AE
:1078400087B0054612B1B3FBF2F292B2A66BD4F840
:107850001110B6FBF2F79B1BB3F5007F28BF4FF466
:10786000007309BA0093607B194B02FB176239441D
:10787000FFF722F9031E07DAFFF77CFF01212846F4
:10788000FFF782FF07B0F0BD94F82E1010D1CDF8AD
:107890000E3007228DF8101003A81946ADF81230EB
:1078A0008DF80C508DF80D20059301F043FEE9E7AB
:1078B0009BB2074A284601F0A5FF0028E2D1054BFC
:1078C0001B68DB07DED500BEDCE700BFCC6D002007
:1078D000CC6B0020F0ED00E0C38A82685BBA9BB2FB
:1078E00022B9002B0CBF002002207047C17B282941
:1078F00004D1017BC90906D1022070472A2902D18F
:10790000017BC909F8D133B1B2FBF3F3002B14BFEB
:10791000002002207047012070470000044880F8D2
:107920003C1080F83D2080F83E300120704700BFB9
:10793000CC6D002040220021014871F04CBE00BFF8
:10794000CC6D002040220021014871F044BE00BFF0
:10795000CC6D002073B54B79082B054602D0002072
:1079600002B070BD8B79062BF9D1CB79502BF6D1B3
:10797000162A05D8174B1B68D907F0D500BEEEE7CD
:10798000154C8B7884F82D3004F12E030E7801937A
:1079900004F12F03009302231A46314401F0DEFE66
:1079A00028B90C4B1B68DA07D9D500BED8E70023ED
:1079B00084F8303022461F2394F82F10284601F017
:1079C00021FF20B9034B1B68DB0700D500BE172041
:1079D000C6E700BFF0ED00E0CC6D00200129F7B54F
:1079E0000646154601D001202EE0137803F07F02F1
:1079F000022A45D16C78012C42D16A88002A3FD1F5
:107A00003B4AAB8892F83070042FDBB2154603D1A5
:107A1000194601F037FFE6E792F82E10994215D18A
:107A2000022FE0D19368946B1B1B9362032382F8AF
:107A300030300D23203201F0E5FE0028D3D12D4B4C
:107A40001B68DB0751D500BE03B0F0BD92F82F4094
:107A50009C42C8D1002FC6D1214601F005FF002865
:107A6000C1D12146304602F08FFA0028BBD1002355
:107A700085F830301E4A95F82F101F233046DAE77C
:107A800003F06003202B30D16B78FE2B13D0FF2B3B
:107A90002BD16B884BBBE9888AB232BB144B304682
:107AA0009987C3E90D2283F83E20294683F83020C8
:107AB00002F0D4FA97E76B88BBB9EB88012B14D19D
:107AC0008DF807300C4B1BB1FEF758FF8DF80700FF
:107AD0009DF807304BB102AA013B02F8013D29464F
:107AE0000123304602F0D2FA7DE70020ACE700BF68
:107AF000CC6D0020F0ED00E07D6902002DE9F04141
:107B0000A14C94F83080B8F1010F8EB006461D46A6
:107B100000F08E811CD3B8F1030F00F0FB8194F8C4
:107B20003030022B18D194F82E10304602F02CFA87
:107B300090B9A368A26B94F82E10934240F213827E
:107B4000207BC00900F00F82304601F09BFE03E06D
:107B500094F82F308B4201D0012013E01F2D03D168
:107B600022688A4B9A4210D0042394F82E1084F88D
:107B70003030304601F086FE94F82F10304601F088
:107B800081FE00200EB0BDE8F081814B2362A76822
:107B90006368E57B63620023A36284F82C30C4E948
:107BA0000D7305F0FD030122282B84F8302012D13B
:107BB0002046FFF791FE014618B13046FFF7E4FD7D
:107BC000ADE7002F00F02E81282D40F08281304655
:107BD000FFF730FEA3E79FB1237BDB0910D1B7F598
:107BE000007F01D90121E8E76A4ABBB201F00AFE31
:107BF000002894D1684B1B68DA07C2D500BEC1E7E4
:107C00001A2D94F80D8000F09B8012D8032D00F0FF
:107C1000C980122D6CD075BB4046FEF7FFFE0028D0
:107C200040F0FC8094F83C30002BDBD1FFF7A2FD44
:107C300021E0232D38D0252D0FD01B2D1BD1574BE4
:107C4000002B00F0EB80E17C4046C1F3400301F0E3
:107C500001020909FEF71AFFE1E704AA05A9404657
:107C6000FEF7FCFE059B13B1BDF8102042B994F855
:107C70003C30002BDAD094F83C30002BB2D1C1E07C
:107C8000013B44491BBA12BAC1E900320820A3687B
:107C9000002BA7D0834228BF03463E4A94F82E10FB
:107CA00063639BB23046A1E700230DF10E0205ADE0
:107CB00004A940460593C5E90133FEF7CFFE049AB7
:107CC000002AD4D0BDF80E30002BD0D012BA5BBA47
:107CD000082106920222ADF81E308DF817108DF89B
:107CE0001C2095E807002B4B83E807000C20CEE70B
:107CF0000023CDE9053380238DF8153002234FF0A2
:107D000020358DF816308DF8173010221F232021D2
:107D100009A88DF81830CDE9075571F05CFC0D9578
:107D20000DAB09AA07A9404605ADFEF72FFE0FCD02
:107D3000184F0FC70FCD0FC72B683B602420A6E755
:107D400003238DF814309DF81630002203F08003D1
:107D500062F3C7138DF81630114B8DF815208DF88E
:107D600017207BB14046FEF7DFFE9DF8163080F00D
:107D7000010060F3C7138DF81630064B059A1A60A0
:107D8000042084E70120F0E7CC6D002055534243E6
:107D900055534253CC6B0020F0ED00E08D6A020099
:107DA000296B02001222002105A871F014FC94F83E
:107DB0003C0094F83D1094F83E208DF82010F023FC
:107DC0008DF814304FF0000360F303038DF8163084
:107DD0000A238DF81B308DF8212005AD0FCD694F9A
:107DE0000FC72B683B80684B03B34FF40072A7F1B9
:107DF00010014046AFF3008000239842A38784F827
:107E00003E3008DAA38E5F4A6049607BFEF734FE9D
:107E10000028FFF6E7AE00287FF439AFA368002BF7
:107E20007FF4E0AE022384F8303078E61220E3E7F6
:107E3000E37BA76B282B05D1636B3D449D42A56373
:107E4000F0D2C4E62A2B48D1E28A52BA92B21AB1D1
:107E5000A368B3FBF2F292B2D4F81110DFF82481D8
:107E6000B7FBF2FC09BA6144607B0095434602FB14
:107E70001C72FEF737FE011E05DAA26B1544A563DE
:107E8000FFF778FCAEE68D421DD96D1A41B1A36BA8
:107E90002A4613FA81F340464144A36371F082FB02
:107EA000002194F82F30CDF81610072205A8ADF860
:107EB0001A108DF814608DF815208DF8183007957C
:107EC00001F038FB2BE6A26B636B15449D42A56362
:107ED000A8D23046FFF77CFC21E6237B3D44DB093A
:107EE000A5630CD1A38E274A607B04F10F01FEF736
:107EF000C3FD002803DA41463046FFF745FCD4E9CC
:107F00000D329A428ED2224B1B68DB077FF507AEFB
:107F100000BE04E694F82E308B427FF41DAE0D2D8A
:107F20007FF41AAEE37B282B09D02A2B14D0194BEF
:107F300053B104F10F01607BAFF3008004E0164BF6
:107F400013B1607BAFF30080002384F83030134A14
:107F500094F82F101F23A5E6114B002BF4D0607B63
:107F6000FEF7D6FDF0E79B1AA362032384F83030B6
:107F70000C4A0D23304601F045FC00283FF43AAE90
:107F8000EAE500BFCC6B002000000000DB6D0020A4
:107F9000F0ED00E00000000000000000CC6D0020CB
:107FA000116B0200EC6D002010B5044681780020B2
:107FB00001F008FC90B1201D01F061F93F28A17883
:107FC00007D904F5A67240230020BDE8104001F057
:107FD00019BC0020BDE8104001F004BC10BD000039
:107FE0002DE9F041054601F015FA10B90020BDE871
:107FF000F08101F017FA07460028F7D14FF4E67434
:108000006C43174D04F118062E44304601F020F958
:108010000028EBD005EB0408384698F8011001F071
:10802000D1FB0028E2D004F5C6742544294640223D
:10803000304601F036F998F80110044658B103466D
:108040002A46384601F0DEFB38B9064B1B68DB07D1
:10805000CCD500BECBE701F0C5FB2046C7E700BF8B
:108060000C6E0020F0ED00E037B5144C00254FF405
:10807000E6720021204671F0AEFA04F12C01009561
:1080800001234022201D01F0AEF80123402204F11B
:108090006C01009504F1180001F0A5F804F1AC01A1
:1080A00001204BF01DF804F1FC01C4E9045001204B
:1080B0004BF016F8C4E9090503B030BD0C6E002082
:1080C00010B5064C2046002340F8043B01F00BF9A4
:1080D00004F11800BDE8104001F005B90C6E002055
:1080E000F7B513464A79FF2A0D4602D0002003B0A7
:1080F000F0BD1B4E7278002AF8D1B278002AF5D173
:108100008A780C7832700A790C442AB3234403E04D
:108110009C4204D221780C4461780529F8D1114F92
:1081200001977B1C00932146022301F017FB28B91D
:108130000D4B1B68DB07D9D500BED8E72879B3788B
:10814000C0EBC000044413B1781EFFF72DFF737815
:1081500013B10020FFF744FF641BA0B2C7E700BFC4
:108160000C6E00200D6E0020F0ED00E008B5114807
:1081700082788A4204D042788A4211D0002008BD19
:108180009AB200F5A671043001F0A7F80A4B13B1BA
:108190000020AFF300800748FFF706FF0120EEE75D
:1081A000064A1AB199B20020AFF300800020FFF711
:1081B00017FFF3E70C6E0020000000000000000035
:1081C000884202D24378934200D170470378184422
:1081D000F6E7000070B50C4E0C461546A04201D3E0
:1081E000204670BD8378112B06D826FA03F3DB07EF
:1081F00002D5C378AB42F4D0037824222146184438
:10820000FFF7DEFFEAE700BF5010020038B50C466A
:108210001546A04201D3204638BD837803F0FD0205
:10822000052A01D0112B02D1C378AB42F4D00378D8
:10823000242221461844FFF7C3FFEAE72DE9F8435B
:10824000C6880D465EB10378544A0B2101FB032317
:108250001B68981903D0AA78017B8A4208D9504B31
:108260001B68DA0700D500BE00242046BDE8F8836D
:108270002AB9012901D90124F7E70122AA706FF078
:108280003F01A9766FF00301E9766FF06401297769
:10829000032100244FF00109A977082185F8231054
:1082A00085F808906C72AC72EC7285F80E90EC73E5
:1082B0002C746C7485F81D9085F81F9085F82090BB
:1082C00085F8219085F822409B5DB0F80D601E4432
:1082D000064431461844FFF77DFFB042074605D1FA
:1082E0002F4B1B68DB07BFD500BEBEE790F80280AE
:1082F000B8F1040F3DD0B8F1060FB6D1EA783B795A
:108300009A42ACD81AB9012BB5D80122EA70387854
:1083100031463844FFF77AFFB042A0D0D5F812308A
:108320003BB9B8F1040F28D0B8F1060F2ED0C5F82C
:1083300012306C6854B9427E012A9CD8D0F81A4099
:108340001AB9D0F81E20A24295D16C6042F210708A
:10835000B4FBF0F4002CC3D0013B1819B0FBF4F4CB
:108360000234B4F5807F28BF4FF48074C5F81640FE
:1083700081E785F80C906C73C0E7B0F80730B0F86F
:1083800005205A437B7D5343DB08D0E7B0F8052036
:10839000B0F8073053431B01F6E700BFD86F002049
:1083A000F0ED00E0F8B5D0E90463054690F8500020
:1083B000AA69F61A3418944228BF1446A04208D974
:1083C0000E4B1C6814F0010401D000BE00242046AE
:1083D000F8BDE968271A503019443A46284471F02C
:1083E000D6F86B69BE423B446B6102BF95F85130D1
:1083F00043F0020385F85130E9E700BFF0ED00E0FB
:1084000070B50C4615461E46A04201D3204670BDED
:108410008378AB4202D1C378B342F8D00378042208
:1084200021461844FFF7CCFEEEE78278884202D25C
:108430008378934200D07047037818448142F5D97D
:108440004378042BF2D00B2BF6D1EFE72DE9F04166
:108450000E688D883544134680460F46B27829460B
:108460003046FFF7CDFF8542044602D80020BDE824
:10847000F081037D012B05D9124B1B68DA07F5D576
:1084800000BEF3E70379CBB1012BEFD10378C589A7
:108490001D440544407A1844294605222044FFF72C
:1084A0008FFEA8420146E1D2404601F033F928B9D7
:1084B000044B1B68DB07D9D500BED8E7A41BFC80A2
:1084C0000120D4E7F0ED00E02DE9F84F17460B78D6
:1084D000424A0C460B2101FB03238246D3F800805D
:1084E00023896BB143440025997801F05BFD6389D2
:1084F00025812BB143445046997801F053FD6581A5
:1085000000266088B4F804906661C4E903664044BC
:10851000C1443B4682784946FFF772FF81450546D4
:1085200002D80020BDE8F88F90F804B0BBF1020F2C
:1085300005D92B4B1B68DA07F3D500BEF1E7A0EB9A
:108540000803E38067B12B7804F108061D4406EBAD
:108550004B0BB3451ED10FB1022363770120E1E736
:10856000637F012BEFD004F11E0339466777A761C3
:108570003022184671F02FF801462046FFF75EFEC4
:108580000028E0D1CDE76B78052B06D0042BD0D0A6
:108590002B781D44A945F6D8CBE7EB7803F003030D
:1085A00097B1012B05D1AB88A269C3F30A039342AB
:1085B000B7D32946504601F0ADF840B9084B1B68C7
:1085C000DB07AED500BEADE7022BF2D0A9E7A5EBE5
:1085D000080326F8023B2B781D44BAE7D86F002029
:1085E000F0ED00E0044B0548002159601960C3F824
:1085F0000710502270F0EFBFD86F0020E46F00200A
:10860000044B0548002159601960C3F80710502237
:1086100070F0E1BFD86F0020E46F00202DE9F04F2B
:108620004B7985B00E2B02900D46144603D00020E6
:1086300005B0BDE8F08F8B79012BF8D1CB79012BF8
:10864000F5D12E4E3768002F51D13160B2803146BE
:108650003A46FFF7FBFE0028E9D02B190193F28878
:1086600033680199DFF89C801344284693F814B0CE
:10867000FFF7DBFE04465FFA87FAD34503D8641B95
:10868000A0B2B080D4E7B8F8023083BBF219A4EBF3
:10869000050913722046019988F80030039388F881
:1086A00001A0A8F80290FFF7C0FE039B88F81D30D8
:1086B000421B0446A8F80420BAF1000F01D001378C
:1086C000D9E7BBF1010FFAD115FA89F015FA82F951
:1086D0005B4682784946FFF793FE8145EFD15246CB
:1086E00041460298FFF7F0FE0028E8D19FE7044BCF
:1086F0001B68DB079BD500BE99E700BFD86F002041
:10870000F0ED00E0E46F00202DE9F0470B46117812
:10871000154601F01F02012A8CB0074647D1A64E2C
:10872000AA8834685FFA82FEB046002C00F0DF8031
:1087300094F802C0F44540F0DA80C1F341195FFAC1
:1087400089F119B1012966D007230BE06A780A2A5A
:108750000AD00B2A24D0994B186810F001004FF072
:10876000070356D1737222E0012B04D0002388F84E
:108770000930012410E0EB88012B15D1F288A418F0
:1087800012D00CAAE17802F8301D294601F07EFCD7
:10879000044648B186F8099020460CB0BDE8F08741
:1087A000012BE3D1EB8823B1FF2388F809300024A3
:1087B000F2E7B8F80620A3181979B1B1A25CDC89F8
:1087C000587A14441C441044214605221844FFF7EB
:1087D000F7FC844205D8794B1B68DC07E4D500BE62
:1087E000E2E78178384601F0DDFB002688F8066074
:1087F00088F807606A8870493846FFF727FE044604
:108800000028D1D02946384601F028FC88F80960B4
:10881000C2E700BEA6E7160A4DD16A88120A012AED
:1088200007D0022A36D0654B1B68D80741D40723EE
:10883000BBE76A78812A21D0862A23D0012AF2D187
:10884000012B0BD1EB88012BAED15D4A01232946C8
:10885000384601F01BFC002888D1A5E7022B85D102
:10886000584B002B82D098F80A100020AFF30080FC
:1088700088F80900B0FA80F464098DE7012B7FF4D1
:1088800075AFDFE7012B7FF471AFEB88012B8BD144
:108890004D4ADCE76A78812A06D0862AC3D1012BAB
:1088A0007FF464AF494AD2E7012B7FF45FAF484AB7
:1088B000CDE700BEBBE7B8F80630E018E45CC3893A
:1088C0001C440444844203D8002C7FF44FAFAEE72D
:1088D0008378023B052B03D8C378B3423FF446AFFD
:1088E0000378242221461844FFF76AFCEAE7DFF800
:1088F000E490B9F802404E46002C3FF44DAF99F891
:1089000000004FF00B0C0CFB0088D8F800C064444A
:10891000A07870457FF44BAFC1F341185FFA88F43B
:108920001CB1012C58D007230BE06A780A2A0BD01F
:108930000B2A2BD0214B186810F001004FF00703D1
:1089400035D189F81C3032E7012B02D00023337770
:108950000FE7EA88012A40F01782B9F80620002ABA
:1089600000F012821CEB020C00F00E820CAA9CF8A4
:10897000031002F8301D3846294601F087FB0446F3
:10898000002800F0018289F81C8005E7012B40F0E7
:108990008F806A8849463846FFF796FD04460028CE
:1089A00000F0F2812946384601F058FBEBE700BEA3
:1089B00089F81C30F0E600BFD86F0020F0ED00E031
:1089C000E26F002000000000D8110A00D7110A0051
:1089D000E16F0020E46F0020120A29D16988090A9A
:1089E000022900F07681062918D001291BD1717F58
:1089F00001B1727795F80190B9F1840F2CD8B9F1D3
:108A0000820F32D2B9F1010F56D0B9F1810F0AD1DC
:108A1000012B9BD1EB88002B50D115E06A78812A7D
:108A200008D0862A13D0C24B1B68DB0700F1AA814D
:108A300007230AE0012B89D106F11C02294638469A
:108A400001F024FB002881D1FF233377AFE6012B0F
:108A50007FF47CAFB74AF1E7B9F1860F00F075817A
:108A6000C0F07C81B9F1870FDDD1012B7FF46EAFAF
:108A7000EB88002B00F08881AF4A6B4602F130088A
:108A80001C46106851689E46AEE803000832424515
:108A90007346F6D19DF80220002A54D1B9F1830F14
:108AA0001ED0B9F1870F4CD0B9F1820F49D00824FC
:108AB0003477B4FA84F4DFE6012B02D130239E4AE6
:108AC000BCE7022B7FF442AF9B49A1F11E00FFF7E8
:108AD000B5FB044600287FF439AF082333775BE603
:108AE000F38833B11CEB030C03D09CF80C308DF8E9
:108AF00002304FF001130121CDE902130023ADF83C
:108B000010304FF6C043ADF81A3040F29B13ADF869
:108B10001C3040F20313ADF81E3040F20113ADF8E3
:108B200020304FF40063ADF822302246302329462E
:108B3000384601F0ABFA0446002800F025810023F6
:108B4000CCE70123D3E79DF803A0BAF1000F4DD184
:108B5000F38813B11CEB030005D1754B1B68DA07D2
:108B6000A5D500BEA3E71CF80330B0F80DA09A44C9
:108B7000824451461844FFF72DFBB9F1830F80461C
:108B800007D0B9F1870F1BD0B9F1820F8FD1012225
:108B900000E002798DF8032098F800005146404427
:108BA000FFF734FB98F80230042B13D0062B7FF428
:108BB0007EAFB0F80520B0F8073053431B0111E039
:108BC0008378042B04D0062B7FF471AF8279E1E720
:108BD000827DDFE7B0F80730B0F805205A4398F8F7
:108BE00015305343DB08CDF812309EE7019B002B74
:108BF0009BD1F388002BB0D01CEB0300ADD01CF848
:108C00000330B0F80D809844804441461844FFF783
:108C1000E1FA0378524618444146FFF7F7FAA9F102
:108C20008203052B3FF643AF01A252F823F000BFA9
:108C3000778C0200498C02009F8C0200AF8A0200F0
:108C4000AF8A0200918C0200437E8BB1053300EBAA
:108C50008303D3F80220D0F81A3042F21071B3FB2C
:108C6000F1F301921ABBADF81620ADF818205CE7BD
:108C7000D0F81E20EFE7437E3BB1053300EB8303C2
:108C8000D3F80230D0F81A20E7E7D0F81E30F9E721
:108C9000D0F8152042F21073B2FBF3F3E1E7437E04
:108CA00013B9D0F82220F5E700231A46D9E7DDF8FA
:108CB000122043B9931CB3F5807F28BF4FF4807313
:108CC000CDF8163031E7013A1A44B2FBF3F3023320
:108CD000F1E76A78812A3FF49BAE31D8012A7FF40C
:108CE000A2AE012B3FF4EAAE022B7FF42FAE124965
:108CF000A1F11E00FFF7A2FA044600283FF4EDAEF2
:108D0000736BB3610D4B3BB10B4A71783078AFF3A5
:108D1000008000287FF41AAE0023C6E90333736194
:108D20000223A6F850304FF48073B38334E500BFBC
:108D3000F0ED00E0D7110A000270002000000000F2
:108D4000852A0BD0862A7FF46EAE012B7FF4FEAD10
:108D5000EA88012A7FF478AE0C4A6FE6012B7FF493
:108D6000F5ADEB88022B7FF46FAE0CAA302122F810
:108D7000301D3846294601F089F9044600287FF461
:108D8000DEAE61E600BE53E6FF2491E6D8110A008C
:108D9000F8B51D4C238907467BB31C4D26780B2262
:108DA00002FB0652126813449D788D4225D1D4E906
:108DB00004329A4215D200F005FD18B32046FFF7A1
:108DC000F1FA04F1500283B22946384600F01AFD48
:108DD00008B1012017E00E4B1B68DA0712D500BE60
:108DE00011E00023C4E9033363610A4B002BF0D088
:108DF00061783046AFF30080EBE7054B1B68DB077B
:108E000000D500BE0020F8BDE46F0020D86F002020
:108E1000F0ED00E0000000000A4492B291424FEAF7
:108E2000400001D8824201DB121A92B2104670470C
:108E300038B50D46D41A8188A4B29A423CBF04EBDF
:108E40004104A4B2BCB1A14205D2914294BF531ACD
:108E50008B189BB2438199420AD9C2880168C2F338
:108E60000E0202FB0311284670F091FB012038BD71
:108E70005B1A9BB2EFE72046F9E7F7B50446900886
:108E800003460D464FF6FF76013B9BB2B3420ED12F
:108E900012F0030201EB800107D002A8002340F882
:108EA000043D70F074FB019B236003B0F0BD55F8E6
:108EB000047B2760E8E72DE9F3470F46BDF828104B
:108EC00084885E1AB6B28B423CBF06EB4406B6B24B
:108ED00080466EB3B44206D29C4294BF191BE1187F
:108EE00089B241812646964228BF16468C4223D934
:108EF000B8F80630D8F80050C3F30E03641A9AB2DB
:108F0000A4B202FB01559DF82C10A6EB040914FB3A
:108F100003FA19FB03F901291FFA8AFA1FFA89F9E2
:108F200018D0A6420BD872432946384670F02FFB62
:108F3000304602B0BDE8F087091B89B2D6E7524639
:108F40002946384670F023FB4A46D8F8001007EB54
:108F50000A00EBE7A64207D816FB03F292B22946B5
:108F60003846FFF78AFFE3E72AF00304A4B222465B
:108F700029463846FFF781FF1AF0030A28D0CAF1C4
:108F800004039BB24B4505EB040102AC28BF4B46E2
:108F90000020A9EB030944F8040D1FFA89F90A5CC3
:108FA0000255421C92450CD1D8F8001020440B44C5
:108FB000994208D1019B3B60B9F1000FB8D04A46F5
:108FC000CEE71046EBE711F8012B00F8012FEFE791
:108FD000D8F80010F0E7F7B5044600690D461646CC
:108FE0001F4618B14FF0FF314AF074F923896189A7
:108FF0003246CDE9001720462946FFF75CFF61891C
:1090000002460546A088FFF707FF6081206920B16E
:1090100000231A46194649F0E3FF284603B0F0BD85
:10902000F7B59408234605464FF6FF76013B9BB201
:10903000B3420CD112F0030200EB840005D00B68A0
:1090400002A941F8043D70F0A2FA03B0F0BD0F6828
:1090500045F8047BEAE72DE9F74F0546C0680E4660
:1090600014461F4618B14FF0FF314AF033F9EA7940
:10907000B5F808806989AB88D2091FFA88F889B2E7
:109080001CD1884536BFC1EB4301A8EB0101414427
:1090900089B2994236BF591A002189B28C4228BF41
:1090A0000C46002C53D1E86820B100231A4619461B
:1090B00049F096FF204603B0BDE8F08F9C4209D3EB
:1090C0002FB9EA88E41AC2F30E0202FB046688464E
:1090D0001C46E6E788454FEA430036BF421AA8EB34
:1090E0000102424492B222448242DADB1A1B92B25B
:1090F0001846FFF791FE8046D3E7A9EB03091FFA54
:1091000089F99945F9D2A3EB0903E98828689BB24C
:10911000C1F30E01A4EB030A8AB213FB01FB1AFB95
:1091200001FA012F1FFA8BFB1FFA8AFA02FB0909C9
:1091300019D09C420DD862433146484670F027FA58
:1091400022464146A888FFF767FE2881ABE7C14663
:10915000D7E75A463146484670F019FA524606EBB0
:109160000B012868EAE79C4207D814FB01F292B28F
:1091700031464846FFF754FFE2E72BF00307BFB242
:109180003A4631464846FFF74BFF1BF0030B28D009
:10919000CBF1040080B2504502AB28BF5046326884
:1091A00043F8042DAAEB000AB9441FFA8AFA0021F9
:1091B000CA5C09F8012001318B45F9D19B442B6829
:1091C0000BEB00015A1E594506D11844BAF1000FA5
:1091D000B6D052463146CDE71BF8017B02F8017F3D
:1091E000F1E72868F2E7B2F5004FF8B504460F46FC
:1091F00015461E462AD8C06818B14FF0FF314AF014
:1092000069F8206918B14FF0FF314AF063F8E3883C
:109210009DF81820E068276066F30E03E380C3F32F
:10922000072362F3C713E37100236381A5802381C1
:1092300018B11A46194649F0D3FE206920B100231F
:109240001A46194649F0CCFE012000E00020F8BD86
:109250000389428981889BB292B2934236BFC2EBA6
:1092600041029B1A9B1898B2884228BF0846704753
:10927000028943899BB29B1A5842584170478288A1
:10928000038940899BB280B2834236BFC0EB420063
:10929000181AC01880B2824286BF101A80B200200D
:1092A00070470023FFF797BE38B5044600690D46A6
:1092B00018B14FF0FF314AF00DF822896389294631
:1092C0002046FFF7B5FD0546206920B100231A4668
:1092D000194649F085FE284638BD12B10023FFF734
:1092E000BABE1046704710B50446C06818B14FF0BA
:1092F000FF3149F0EFFF206918B14FF0FF3149F01D
:10930000E9FFE06800236381238118B11A461946FA
:1093100049F066FE206920B100231A46194649F03B
:109320005FFE012010BD38B50446C0680D4618B177
:109330004FF0FF3149F0CEFF206918B14FF0FF31F7
:1093400049F0C8FFE379E06865F3C713E37120B122
:1093500000231A46194649F043FE206920B1002334
:109360001A46194649F03CFE012038BD2DE9F0416E
:10937000194D1A4FDFF87880064600242978E3B2A9
:109380004A1D9A4210DA38220021154870F023F95C
:109390001022FF21134870F01EF91222FF211248FB
:1093A000BDE8F04170F017B999424FF018020BD99F
:1093B000D8F8001002FB03134BB90C4B1B68DB07FA
:1093C00000D500BEBDE8F0815B1A02FB03735B6849
:1093D000304698470134D1E738710020DC110A008B
:1093E0008C71002090710020A0710020F0ED00E051
:1093F0003471002070B50C4605461646086800F02A
:1094000085FE2368324628460121BDE87040184792
:1094100070470000024B5878003018BF0120704799
:109420008C710020024B1878C0F38000704700BF99
:109430008C710020024B1878FF3818BF012070474C
:10944000146100202DE9F7432F4D2B78FF2B0646A2
:1094500043D1382200212D4870F0BDF82C4901205D
:1094600049F03EFE2B4B186038B92B4B1B68DA07CE
:1094700047D4002003B0BDE8F083284F3B460022CC
:1094800033F80C0B798800927A6849F06DFDB96861
:10949000044649F0BFFF224B1C602CB91E4B1B68D1
:1094A000DB07E6D500BEE4E71E4B23B11E48AFF351
:1094B00000801E4B18601C4FDFF87480DFF86C9042
:1094C00000243A78E3B2511D994208DA30462E70F2
:1094D00000F0A7FF304600F0A5FF0120CAE79A423E
:1094E0004FF0180009D9D9F8002000FB032000280C
:1094F000BBD0036898470134E3E79B1A00FB038065
:10950000F7E700BEB6E700BF146100208C710020B1
:109510003C710020C4710020F0ED00E0B860002034
:10952000C871002000000000387100203471002054
:10953000DC110A002DE9FF414378023B04460D4649
:10954000042B13D8DFE803F00333222A8C00524B9C
:109550001A786FF300021A701A7800216FF3410233
:109560001A7059701A7861F382021A704B4B18689E
:10957000002D7BD12B464FF0FF32214649F030FDC4
:109580002A4661782078FFF743FF3FE0424B1A7884
:10959000D0073BD51A7842F00402E6E73E4A13783A
:1095A000D90733D513786FF382031370DEE73A4A95
:1095B00013785B0720D513786FF38203137002785A
:1095C0008DF8042005228DF80520344A0023CDF8BB
:1095D0000630CDF80A30ADF80E301068C9B90B4628
:1095E0004FF0FF3201A949F0FBFC2A469DF8051017
:1095F0009DF80400FFF70CFF294E2A4FDFF8AC80DE
:1096000000253178EBB24A1D9A4215DA04B0BDE864
:10961000F08104AA01A942F8103D49F088FD009BA1
:10962000002BE2D0204B4FF080525A6040BFBFF376
:109630004F8FBFF36F8FD8E799424FF018020BD9C5
:10964000D8F8001002FB031323B15B6913B1616802
:10965000207898470135D4E75B1A02FB0373F4E7DF
:109660000D4AD3780133DBB2D3707FE704AA00231D
:1096700042F80C3D214649F05AFD019B002B3FF476
:109680007FAF094B4FF080525A6040BFBFF34F8FFE
:10969000BFF36F8F74E700BF8C710020C87100208A
:1096A00038710020DC110A0000ED00E03471002068
:1096B0001FB5CDE90201154908240023019308686C
:1096C0008DF80540144672B9134601A94FF0FF32D8
:1096D00049F086FC22469DF805109DF80400FFF72E
:1096E00097FE04B010BD04AA01A942F8103D49F04C
:1096F0001EFD009B002BEDD0054B4FF080525A60B1
:1097000040BFBFF34F8FBFF36F8FE3E7C8710020F7
:1097100000ED00E038B58B7803F07F03082B0C4692
:1097200006D90B4B1B68DB0700D500BE002038BDF7
:10973000084B1D78084B2046997801F0F9FB00286A
:10974000EFD021462846BDE8384000F083BE00BF78
:10975000F0ED00E0146100208C7100202DE9F0474D
:10976000DDE9085680460C4691469A460027B945E1
:1097700001DC01200CE06378052B04D1E17801F0D5
:109780000301514508D00E4B1B68DA0702D40020B4
:10979000BDE8F08700BEFAE721464046FFF7BAFF72
:1097A00028B9074B1B68DB07F1D500BEF0E7A178AD
:1097B000CB0914BF31702970237801371C44D6E7D8
:1097C000F0ED00E0CB0901F07F00263303EB40030E
:1097D000024A03481168184401F064BBC4710020B8
:1097E0008C710020CB0901F07F00263303EB40038E
:1097F000024A03481168184401F07CBBC471002080
:109800008C71002038B5154C01F07F0504EB450440
:1098100004EBD1142034A079C00707D5104B1B6886
:10982000DA0701D4002038BD00BEFBE7A5790D485A
:1098300045F001050078A57100F03CFF0028F2D149
:10984000A37960F30003A371A37960F38203A3718A
:10985000034B1B68DB07E5D500BEE4E78C710020F5
:10986000F0ED00E014610020054B01F07F0203EBF6
:10987000420303EBD11191F8260000F0010070477C
:109880008C71002010B50C4C01F07F0204EB4204F7
:1098900004EBD1142034A3799B070BD4074B187821
:1098A00000F082FFA37943F00203A371A37943F090
:1098B0000103A37110BD00BF8C7100201461002052
:1098C00010B50C4C01F07F0204EB420404EBD11400
:1098D0002034A3799B070BD5074B187800F088FF3D
:1098E000A3796FF34103A371A3796FF30003A3710D
:1098F00010BD00BF8C710020146100202DE9F04FD5
:10990000B94B1B78FF2B8BB0824600F0E2824FF4FC
:109910007A72002380024FEA9A516EF073FEB34CC4
:109920000390B34BBAF1FF3F18681DD0BAF1000F96
:109930001AD0039B002B14BF1A46012207A949F035
:109940004FFC002800F0C5829DF81D30013B072B1D
:1099500000F20883DFE813F00A001A000603E602AB
:10996000F40226008F02FF025246E7E79DF81C0032
:10997000FFF7FCFC00F0C2FB9DF82030A3709C4B6D
:10998000186849F03DFD0028CBD1A2E29DF81C00EB
:10999000FFF7ECFC00F0B2FB964B002BEFD0AFF3DF
:1099A0000080ECE7E378013BDBB2E370E37803F09F
:1099B000FF00002BE3D123789DF81C5043F00103F6
:1099C000237094F8263060F3000384F8263094F86E
:1099D000263060F3820384F8263094F8273060F351
:1099E000000384F8273094F8273060F3820384F86A
:1099F000273000F08BFB9DF8203003F06002602AD6
:109A000006D17D4B1B68DD0740F1208200BE1DE2C0
:109A1000402A0DD17948002800F0188200F076FB2A
:109A200008AA01212846FDF7F9F80028A7D10DE280
:109A300003F01F03012B00F0BE813DD3022BE0D1C8
:109A40009DF8241001F07F03082BDAD85B00C809C9
:109A5000E61806446A4F367D3F78BE4280F0E281C8
:109A6000684F3F6806EB460607EBC606002A40F043
:109A7000EB819DF82120012A03D0C0F0F281032A56
:109A8000BFD1BDF822302BB9012A284640F0F08121
:109A9000FFF716FF002E3FF472AF06F10C0108AA83
:109AA0002846FFF7A7FC002000F030FB94F8273091
:109AB000DE073FF564AF91E0202A22D19DF82430E3
:109AC0000F2B00F2C381234419794D4B1B78994227
:109AD0000DD24C4B1B6801EB410113EBC10100F0AF
:109AE000B58108AA0C312846FFF784FC9DE75A1D72
:109AF0008A42C0F2AB81C91A434B182202FB0131E2
:109B0000EFE7002A7FF47DAF9DF82130092B3FF667
:109B100078AF01A252F823F0979D0200879D0200C2
:109B2000039A0200759D0200039A0200419B020005
:109B3000EB9C0200039A02005B9B0200679B020001
:109B400008A800F0E9FA9DF82210284600F070FC01
:109B5000237843F00203237011E70AAA637802F81E
:109B60000E3D012322E19DF822300193019A637892
:109B70009A4230D063783BB1284600F0F3FCA678D7
:109B80002846FFF7F3FBA670019B002B00F0A68090
:109B9000581EC0B2FCF7A6FE10B14378022B06D0C7
:109BA000154B1B68DF077FF52CAF00BE29E7C27994
:109BB0002378511161F30413921162F3451323705A
:109BC0004388C31800F109060493049BB3421FD8CD
:109BD0000E4B002B7FD19DF80430637008A92846F6
:109BE00000F03CFACBE600BF146100208C7100202D
:109BF000C871002000000000F0ED00E01D6C0200C4
:109C00003871002034710020DC110A0000000000CF
:109C100073780B2B03BF337896F80380F6184FF058
:109C200001087378042BBBD1049B9B1B9BB205934B
:109C300000230293B04B9DF808701B785A1D974281
:109C400030DCBB424FF0180932D9AC4B1B6809FB22
:109C50000739B9F1000FA3D0D9F80830059A314679
:109C6000284698470828834632D9059B83422FD33C
:109C7000B8F1010F0BD1D9F80830A14A934208BFBF
:109C80004FF002089F4A934208BF4FF0020800229B
:109C9000D3B2434511D331463B465A469A4801F068
:109CA00077F95E44944B1B7805339F428DDD77E74F
:109CB000964AFB1A09FB0329CEE7B1780B4454FA04
:109CC00083F301321979FF297FF46AAF1F71DFE74F
:109CD000029B0133ADE7AFF300807CE78C4B002B98
:109CE0003FF479AFAFF3008075E7BDF82200030AB7
:109CF0005A1EC0B20E2A00F2A980DFE802F0081D49
:109D00002CA7A7351DA7A7A7A7A7A7A70D00FCF7F6
:109D1000E5FD122302460AE07E4B002B00F0968000
:109D2000FCF778FF024600283FF46BAE438808A991
:109D3000284600F0ABF978E6022B06D1FCF7D2FDFD
:109D400000283FF45EAE4388E4E7734B002B7DD0E0
:109D5000AFF30080F4E7BDF82410FCF7C9FD02461C
:109D6000002873D00378E2E76C4B002B6ED0AFF382
:109D70000080F4E7BDF82230012B67D1237843F04F
:109D8000080323702AE7BDF82230012B5ED1237827
:109D90006FF3C303F5E72378C3F340129B0803F086
:109DA000020313430AAA22F80E3D022308A92846FB
:109DB00000F06CF9E3E59DF824300F2B46D82344DE
:109DC00019794D4B1B78994223D24C4B1B6801EB00
:109DD000410113EBC10139D008AA0C312846FFF725
:109DE00009FB00287FF4CBAD9DF8203013F060060E
:109DF0002CD19DF821300A3B012B27D800F086F9A1
:109E00009DF821300A2B7FF4E9AE0AAA02F80E6D04
:109E1000A7E65A1D8A4219DBC91A3C4B182202FBDD
:109E20000131D9E707F1050CB445C0F2A280F61B59
:109E3000364F4FF0180C0CFB0676002A3FF419AE93
:109E400008AA06F10C014EE6002EF9D19DF81C007F
:109E5000002100F0A9FC80219DF81C0000F0A4FC6A
:109E60008DE52344034420339B79C3F3400399E7F2
:109E7000FFF708FD0EE69DF8201001F07F0504EBCA
:109E8000450303EBD11393F826006FF3000083F82A
:109E9000260093F826006FF3820083F826003DB970
:109EA000099B9DF821209DF81C0000F041F966E512
:109EB000114A1B7D127893420ED2104A126803EBAE
:109EC000430312EBC3030FD1154B1B68D80700D512
:109ED00000BE0BB0BDE8F08F501D9842F4DB9B1A1A
:109EE0000A4A182000FB03231D699DF82120099BC5
:109EF0009DF81C00A84742E538710020347100200D
:109F0000FD6E02001D760200A0710020DC110A0027
:109F100000000000156C02000000000000000000BE
:109F2000F0ED00E02378D9077FF529AD134B002B26
:109F30003FF425AD2078C0F3C000AFF300801EE5EC
:109F40002378DA077FF51BAD0D4B002B3FF417ADDF
:109F5000AFF3008013E5089B002B3FF410AD099888
:109F600098470CE5074B1B68DB077FF508AD00BE83
:109F700005E5002A7FF46AAF00267AE500000000BC
:109F800000000000F0ED00E0054B01F07F0203EB64
:109F9000420303EBD11191F82600C0F34000704753
:109FA0008C710020134B10B50C462BB9124B1B685B
:109FB000DB0700D500BE10BD104B187800F01CFB6D
:109FC0000F4904F07F0301EB430101EBD41191F839
:109FD00026306FF3410381F8263091F826306FF375
:109FE000000381F8263091F826306FF3820381F860
:109FF0002630E0E7F9A50200F0ED00E01461002052
:10A000008C710020124B9989DA8970B58C1AA4B230
:10A01000054693F90000402C28BF4024002809DAA7
:10A02000914212D099680B4822466FF0B0FA802115
:10A03000084A04E091424FF00001F9D10022234682
:10A040002846BDE87040FFF7DDBB8021F6E700BF82
:10A050008C720020A07200207047000030B40A4CBF
:10A0600005460A4608684968234603C30023C4E935
:10A07000023392F900209A4228461A46ACBF80214A
:10A08000194630BCFFF7BEBB8C720020F8B5194DE5
:10A090000C46074608684968AA602E4603C6002198
:10A0A000E981E1888B4228BF0B46AB8179B143B18E
:10A0B0003AB9114B1B68DA0701D40020F8BD00BE85
:10A0C000FBE73846FFF79EFF68B10120F6E794F9F9
:10A0D0000030002B0A460B463846ACBF80210021D9
:10A0E000FFF790FBF0E7044B1B68DB07E5D500BEEC
:10A0F000E4E700BF8C720020F0ED00E014220021A4
:10A1000001486FF068BA00BF8C720020014B1861E3
:10A11000704700BF8C7200200146044A00684968FD
:10A12000134603C30023C2E9023370478C72002038
:10A13000F8B52F4F1E463B78C909B1EBD31F054632
:10A140003C4614D03EB12B4B1B68DA0701D40020EB
:10A15000F8BD00BEFBE73946FFF77EFF3B690BB950
:10A160000120F5E73A46032128469847F8E797F992
:10A170000030002B06DBB8680028E8D032461E49C4
:10A180006FF005FAA368E28933443244A360E388A0
:10A1900092B29342E28101D03F2E24D823699BB929
:10A1A00094F90030002B4FF000031A46ACBF802119
:10A1B00019462846FFF726FB0028D1D10D4B1B6816
:10A1C000DB07C4D500BEC3E70221094A28469847E9
:10A1D00001460028E4D1284600F0E6FA802128460E
:10A1E00000F0E2FABCE72846FFF70CFFE4E700BF07
:10A1F0008C720020F0ED00E0A0720020064B186881
:10A20000043B1B68082B04D103288CBF00200120CD
:10A2100070470020704700BF3401001042DF7047D4
:10A2200043DF704744DF704712DF704743F2040397
:10A2300007B51A68094B9A424FF000030CD102A8E7
:10A2400000F8013DFFF7F0FF9DF80700003018BF50
:10A25000012003B05DF804FB1846FAE7DBE5B151D5
:10A2600001230360BFF36F8FBFF34F8F074B9842FB
:10A2700002D0043B984207D1BFF35B8F044B00220E
:10A2800083F82021BFF35B8F704700BF50700240FE
:10A29000E0720020F0B42B4ABFF35B8F014602F559
:10A2A00090734FF00104D3E84F0FC3E8454F002DE2
:10A2B000F9D1BFF35B8F10F0FF0F14460AD0224B89
:10A2C00022485A68C2F30802003218BF0122F0BCCB
:10A2D000FFF7EEB908291E481AD1D0F8C034D903C7
:10A2E00008D5BFF35B8F002384F82031BFF35B8F69
:10A2F000F0BC704792F80B110029F2D0D2F800217F
:10A30000C0F8A027C0F8A4371248F0BCFFF7A8BFD8
:10A310004D01561901F5947350F82340F788B3881E
:10A32000DB1B9BB2A4B2A34228BF2346545914227C
:10A3300002FB0100C0F80047C0F80437064800EBF4
:10A340008100E2E7E072002000ED00E05DA3020082
:10A35000007002404870024028700240C0B2FFF70F
:10A3600099BF000010B40E4BBFF35B8F01464FF056
:10A370000104D3E84F2FC3E84C4FBCF1000FF8D1D4
:10A38000BFF35B8F12F0FF0F05D0012205485DF887
:10A39000044BFFF78DB95DF8044BFFF761BF00BFB9
:10A3A0000074002065A302000D4B03EB4013D98A13
:10A3B0009A8A521A198B92B28A4228BF0A461969A0
:10A3C0001423434303F1804303F51C33C3F8001601
:10A3D000C3F80426034B03EB8000FFF7C3BF00BFA5
:10A3E000E07200200470024007B5FFF71FFF60B164
:10A3F00002A8002340F8043DFFF714FF0198003045
:10A4000018BF012003B05DF804FB4FF08043D3F880
:10A410000C24D3F80C0410F4803018BF02F00100B3
:10A42000F0E77047014B80225A60704700E100E07E
:10A43000074BD3F80014D3F800240A43C3F80024D0
:10A440000022C3F858214FF48002C3F80423704758
:10A450000070024070B588788E883E4AC97800F056
:10A460007F03C40904EB430502EB051501F003016A
:10A47000C6F30A0601292E8129D0012101FA03F52C
:10A48000354AD4B903F10C06B140C2F80413D2F82E
:10A49000141503F594732943C2F8141542F82340A8
:10A4A0002D4BC3F8180540F48070C3F80C05BFF3BA
:10A4B0006F8FBFF34F8F012012E002339940C2F833
:10A4C0000413D2F810352B43C2F81035E8E7082BF7
:10A4D00007D0224B186810F0010001D000BE002008
:10A4E00070BD1D4BDCB9B2F8182112B18022C3F83F
:10A4F0001C250022C3F85021D3F8002312F40012C7
:10A5000008BFC3F85421144B4FF44012C3F804237E
:10A51000D3F8142542F48072C3F81425C7E7B2F8C3
:10A5200008210021C3F82C1112B18022C3F81C2588
:10A53000D3F8002312F4001208BFC3F85421064BCD
:10A54000074AC3F80423D3F8102542F48072C3F8F5
:10A550001025ACE7E072002000700240F0ED00E052
:10A56000000820001F4B80222DE9F041C3F8842011
:10A57000BFF34F8FBFF36F8F01241B4DDFF8748043
:10A58000274604F10C03A21C07FA02F207FA03F3B0
:10A590001343C5F80833A30003F1804303F51C33CC
:10A5A00000265E6008EB44109E6220223146013492
:10A5B0006FF011F8082CE4D10C4BC5F808332022B9
:10A5C000C5F81C6531466E620948AE646FF003F849
:10A5D000C5F81475C5F81075024B80225A60BDE8A5
:10A5E000F08100BF00E100E0007002400008300090
:10A5F000E0730020E072002070B501F07F04082CA9
:10A600004FEAD111294B2A4823D0012202FA04F53E
:10A61000ED43A1B904F10C06B240C3F80823D3F806
:10A6200014251540C3F8145501EB440100EB01114A
:10A630000023CB72BFF36F8FBFF34F8F70BDA61C8B
:10A64000B240C3F80823D3F810251540C3F81055BD
:10A65000EAE700EB01120025A2F80851D1B94FF446
:10A660008012C3F80823D3F8142522F48072C3F8AB
:10A670001425C3F850110D4BB0F808510022C3F84F
:10A680001C25B0F81821EA4204BF4FF40012C3F8A9
:10A690000823C9E74FF40062C3F80823D3F8102554
:10A6A00022F48072C3F81025E5E700BF0070024075
:10A6B000E07200202DE9FF4101F07F00CD09344C0C
:10A6C0001E4605EB40031B010F46E118A64691F814
:10A6D0000BC00CF0FF08BCF1000F0AD02D4B1B681B
:10A6E00013F0010301D000BE0023184604B0BDE8FA
:10A6F000F081E2508E80A1F8068020B1002D37D085
:10A70000FFF752FE1FE056BB234BD3F88034C3F350
:10A71000C013AB4223D02148FFF724FE204B5968D9
:10A72000CDF80660C1F3080100314FF4E06218BFB4
:10A73000012101A8ADF80A60ADF804208DF8087079
:10A740000396FEF7F7FE0123CFE7D17A01F0FF046D
:10A750000029CAD09572FFF79DFD2346C5E7002D5D
:10A76000CED101248EF80B400E48FFF7FBFDEAE73F
:10A7700004EB40120121D172BFF36F8FBFF34F8FF3
:10A78000947A04F0FF03002CDFD10B46ADE700BF45
:10A79000E0720020F0ED00E00070024050700240D6
:10A7A00000ED00E04C70024011F07F0008B507D1C9
:10A7B0000D4B01225A65BFF36F8FBFF34F8F08BD5A
:10A7C0000828F8D0084B41F48072C909C3F818254D
:10A7D000F1D1064B03EB40139A7A002AEBD0997221
:10A7E000FFF758FDE7E700BF00700240E07200206D
:10A7F00011F0770F12D00A4B41F48072C3F80C1598
:10A80000C3F80C25CA09C3F8181504BF01F59471E3
:10A8100043F82120BFF36F8FBFF34F8F704700BF06
:10A820000070024008B5184B01220021C3F814251E
:10A83000C3F810250A468B0003F1804303F51C334F
:10A84000013108295A609A62F5D10F4B5A629A6415
:10A85000C3F85821D3F80014D3F800240A43C3F8EE
:10A860000024D3F80023C3F80823084AC3F80423BC
:10A87000074B4FF49272002118466EF0ACFE402256
:10A880000283028108BD00BF007002400514C001B0
:10A89000E07200202DE9FF47C24BC348D3F80013F4
:10A8A00000231C4601251E4621FA03F2D7070BD5CB
:10A8B0001A18920017683FB105FA03F73C43166077
:10A8C000BFF36F8FBFF34F8F0133192BECD1E1072B
:10A8D00010D5FFF7A7FF002304A8CDF80630CDF868
:10A8E0000A30ADF80E304FF4807320F80C3D012192
:10A8F000FEF720FE220509D5AA4BAC4AD3F8A836AC
:10A900009BB2A2F81631012382F81C31A30204F491
:10A9100080053DD5A34AD2F8143513F4807308D0CE
:10A920001DB1D2F80034DF0702D40820FFF7B2FCD3
:10A9300001239C4AD2F81015CE0540F159819B4A5B
:10A9400092F81C31A3B1002382F81C31CDF80630F7
:10A95000ADF80A304FF4E063B2F81621ADF80430D8
:10A960000121882301A88DF808300392FEF7E2FD4B
:10A970000023CDF80630CDF80A30ADF80E308DF852
:10A9800004300121032301A88DF80530FEF7D2FD24
:10A99000002D40D0834BD3F8005440F201722A407E
:10A9A000E805C3F8002412D50121C3F82C150023B3
:10A9B000CDF80630CDF80A30ADF80E308DF8043001
:10A9C00004230DEB03008DF80530FEF7B3FD690598
:10A9D0000FD5744B0122C3F808259A65D3F80023DC
:10A9E00012F4001208BFC3F854214FF40012C3F848
:10A9F0000423AA050FD50023CDF80630CDF80A3080
:10AA0000ADF80E308DF804300121052301A88DF832
:10AA10000530FEF78FFD23023AD5624BD3F8801440
:10AA2000D3F88424D3F88804D3F88C74D3F89064D2
:10AA3000D3F89454C9B25FFA80FCD3F89804D3F8E1
:10AA40009C3411F07F0FD2B2FFB2F6B2EDB2C0B2B9
:10AA5000DBB201D1052A1BD04FF0000EADF806E0A5
:10AA60008DF808104FF4C06E8DF80E00012101A87A
:10AA7000ADF804E08DF809208DF80AC08DF80B7050
:10AA80008DF80C608DF80D508DF80F30FEF752FDEB
:10AA9000474B234073B1BFF35B8F444B93F82021A6
:10AAA000BFF35B8F002A40F0AB80424B1B68DA0794
:10AAB00000D500BE3D4F404E002505F10C0324FAA1
:10AAC00003F3DB07E8B225D514236B4303F180437E
:10AAD00003F51C33082DD3F808274FEA45131FFA56
:10AAE00082FCD95911FA82F2DA5107EB0302D188BC
:10AAF000614489B2D18000F08B801189614540F0BA
:10AB00008780D18892888A4240F2828010B930468C
:10AB1000FFF728FC0135092DCFD1284B2340002B0E
:10AB20007ED0204BD3F86C64C3F86C64BFF36F8F96
:10AB3000BFF34F8F14F4806408D0D3F88044D3F867
:10AB400080341906C4F3C01440F182800027DFF876
:10AB50005480DFF858A000254FF0140926FA05F3B9
:10AB6000DA07E8B201D4A5B99CB109FB05830AEB69
:10AB70004512D3F808361169DBB219441161D18A44
:10AB80000B449BB2D382D38A918A994262D9FFF750
:10AB90000BFC0135082DE1D1044D00244FF00108D4
:10ABA0000EE000BF00700240409C0010E0720020E8
:10ABB000FCFB1F00F0ED00E04C70024000040001BF
:10ABC00004F1100326FA03F3DB07E0B201D45CB909
:10ABD00057B16301EA18D17A00294FD0D188928801
:10ABE0008A424BD9FFF756FB0134082CE8D117E015
:10ABF000002B7FF4BDAE4FF40013C2F80833B7E664
:10AC00000022BFF35B8F83F82021BFF35B8F51E7F6
:10AC10003B44DA7A3AB91B4B1B68D80700D500BE13
:10AC200004B0BDE8F087DA889A800022DA72CDF8A5
:10AC30000620DB88ADF80A208DF808004FF4E062AA
:10AC4000012101A8ADF804200393FEF773FC61E72E
:10AC500001277CE7002360F07F00CDF80630D28A20
:10AC6000ADF80A308DF808004FF4E063012101A827
:10AC7000ADF804300392FEF75DFC8AE72B4483F8BD
:10AC80000A80B1E7F0ED00E001287FB5014600F051
:10AC9000B58003D3022851D004B070BD764BD3F8F1
:10ACA0000025002AF8D14FF48002C3F808234FF49E
:10ACB0000062C3F80024BFF36F8FBFF34F8F6F4B59
:10ACC0001B68082B0ED16E4B1B68013B022B09D869
:10ACD0006C4B6D4A1868032118BB49F27530186037
:10ACE00011601860FFF78AFA48B1664B674A186826
:10ACF000C021C0B949F275301860116018605E4B10
:10AD00000121C3F80015BFF36F8FBFF34F8FFFF71B
:10AD10006BFB0028C0D1FFF789FA30B1FFF77EFA4C
:10AD2000BAE71160DEE71160E9E7594B18601B686C
:10AD30000193019B4FF080431960ADE74E49D1F874
:10AD400004351BB1FFF750FB0028A5D1D1F8003422
:10AD50001B05FBD54FF40063C1F80034BFF36F8FC0
:10AD6000BFF34F8FFFF74AFA48B1464B474A18687E
:10AD700000283DD149F275311960106019603F4BD0
:10AD80001B68082B0DD13E4B1B68013B022B08D8DA
:10AD90003C4B3D4A186870BB49F275311960106030
:10ADA0001960FFF72BFA48B13A4B40F2E3721A6090
:10ADB00040225A60BFF36F8FBFF34F8F2E4C364E39
:10ADC00080250123C4F81C55C4F80433C6F8845107
:10ADD000FEF730FB00B17560FFF706FB0028FBD0E3
:10ADE0000123C4F80435BFF36F8FBFF34F8F53E7D0
:10ADF00000231360C3E700231360D2E71E4BD3F890
:10AE00000025002A3FF448AF0022C3F80425BFF311
:10AE10006F8FBFF34F8F20488024C0F88440BFF36A
:10AE20004F8FBFF36F8FD3F80003C3F80803C3F845
:10AE30000025BFF36F8FBFF34F8FFFF7F7F9C0B156
:10AE4000FFF7EEF9154B5968C1F3080100230031F3
:10AE5000CDF80630CDF80A30ADF80E308DF804305C
:10AE600018BF0121022301A88DF80530FEF762FB0F
:10AE700012E70B4B1960E5E700700240300100104B
:10AE80003401001000EC064014ED064014EC0640BE
:10AE9000000100400078024000E100E000ED00E029
:10AEA00004000040F8B5047814F0010405460F468C
:10AEB0001ED10678C6F38006B6B94FF0FF3138468A
:10AEC00048F008FA2B7813F001040FD12B785B07B8
:10AED00004D42B7843F004032B70012400231A467A
:10AEE0001946384648F07CF82046F8BD3446F5E768
:10AEF0000024F9E770B505460E4630464FF0FF31A5
:10AF000048F0E8F92C78C4F380047CB12B7813F076
:10AF100001020BD12B7862F382032B7000231A46B7
:10AF20001946304648F05CF8204670BD0024F5E72D
:10AF30008388C07800F003000228C3F30A0312D00C
:10AF40001BD801280DD1022940F2FF3208BF4FF46F
:10AF500080629A420DD20D4B186810F0010008D0A3
:10AF600000BE00207047022904D1B3F5007FF2D162
:10AF700001207047402BEED8FAE702290CBF4FF4AE
:10AF8000806240229A42E6D3F2E700BFF0ED00E093
:10AF900030B50A44914200D330BD4C78052C06D11F
:10AFA0008C7804F07F0500EB4505E4092B550C78FF
:10AFB0002144EFE77047000038B5054CA4F59665CD
:10AFC0002046183C5BF0D2FDAC42F9D138BD00BF41
:10AFD0009C7800201FB50A4C014620465CF08FF893
:10AFE000084B226819780023B1FA81F1CDE90133C9
:10AFF00000934909044B012006F0A4FA04B010BDE7
:10B00000C8980020B898002093120A00124B1B68C1
:10B01000834270B5064615461BD91B1A0F4CB3F573
:10B02000805F28BF4FF4805304EB0134136000218C
:10B030004FF4805220466EF0CEFA2B680848224624
:10B0400006F5805107F0FFFF2B681B1A5842584144
:10B0500070BD0020FCE700BFE0980020B878002019
:10B06000EC98002000F1080373B50360044608461D
:10B070000D4670F05FF90F2805EB0006019007D927
:10B08000002201A920465BF057FD019B2060A360D0
:10B090003246294620685BF0DCFD019B2268636034
:10B0A00000212046D15402B070BD10B5044649F0CD
:10B0B00069FB204610BD000073B5012213491448F6
:10B0C000144E07F043FE044630B913486FF08EF972
:10B0D0003470204602B070BD0021012508236A4665
:10B0E0000E483570CDE9001107F0ADFF0828F0D10A
:10B0F0000B4B009A9A42ECD1019B0A4A591E91428D
:10B100009FBF094A1360094B1D70E2E718610020D8
:10B11000E8980020B4780020AA130A00EC980020D8
:10B12000304455412F130800E0980020E498002097
:10B130000FF0F0BB014902485BF0E1BF99120A0031
:10B14000C89800202DE9F04F87B00C46AF49009217
:10B1500005465CF022F948B9AD4A1378B3FA83F397
:10B160005B091370FFF7E6FF0123C9E0A9492846F0
:10B170005CF013F90028EFD0A74928465CF00DF9E0
:10B180008346002840F01881A14AA44B15781B780B
:10B19000002D7CD10BB9A24810E0A248A24EFFF7C7
:10B1A00019FF20460FF0B6FB290B304607F02EFFA3
:10B1B00038B929469D486FF067F89D48FFF70AFFA8
:10B1C0009DE0304605F5805507F044FEB5F5032FA8
:10B1D000EAD147F087FD4FF480638146954A00210C
:10B1E00020460FF07BFB08B99348E7E70025DFF81E
:10B1F000448201272E4609F6B83B47F073FD83458C
:10B2000014D98E4B9D4211D847F06CFD00F1C80A4D
:10B2100047F068FD8245F0D920460FF0B7FB0028C3
:10B2200040F0D680012047F068FDF1E720460FF09E
:10B2300071FB834B7C48CDE9043504AA0823002127
:10B2400007F01EFF082820D177487E4C07F002FE49
:10B250007D4B7E481D60002D14BF01230023237009
:10B260007B4B18BF1846FFF7B5FE2378002B46D05E
:10B27000009B002B43D0984741E06B4807F0EAFD64
:10B28000334655443E461F46B5E7724896E7002BC5
:10B2900081D06C4B1B7813B16B4F3B680BB96B487B
:10B2A0008CE76D48FFF796FE20460FF033FB04AAAB
:10B2B00059465846CDE904BBADF80CB0FFF7A6FEE1
:10B2C00008B966487AE74FF480635A465949049EA4
:10B2D00020460FF003FB08B961486FE7049B8DF827
:10B2E0000CB0019301253B685B4512D820460FF056
:10B2F00011FB5C48FFF76EFE009B002B5AD1002328
:10B300000122002062F3070063F30F2007B0BDE8BD
:10B31000F08F06AA02EB050919F80C2CBAB9B34252
:10B3200015D904AB03EB850229463046FFF76EFEC4
:10B3300018B920460FF0EEFAC3E706AB03EB85031E
:10B3400053F8083C1E444FF0010309F80C3C06ABCF
:10B3500085F0010803EB080A1AF80C3CABB93B680E
:10B36000B34212D904AB03EB880241463046FFF7E3
:10B370004DFE0028DDD006AB03EB880353F8083CF4
:10B380001E444FF001030AF80C3C47F0ABFC00F5FB
:10B39000FA7A47F0A7FC8245A5D920460FF0FAFAC1
:10B3A000002865D1012047F0A8FCF2E73B68B342D2
:10B3B00099D89BE7009B5EE72B4928465BF0EDFFA1
:10B3C00018B920460FF0A6FACCE60123002298E730
:10B3D000C5F5012A0AF54C7A08EB073120460FF033
:10B3E0009DFABAF5805F28BF4FF4805A534608EBA8
:10B3F000063205F580510C4807F042FE82453FF4C5
:10B400003CAF20460FF086FA1848D7E6C8120A006B
:10B41000B8980020CD120A00D0120A00B47800209B
:10B42000D7120A00E7120A00EC980020F7120A006F
:10B430001B130A00B87800202E130A002F130800EF
:10B4400030445541E4980020E0980020BF120A00E3
:10B45000AF120A0055130A0069130A0074130A0098
:10B4600086130A0098130A00A6130A0042130A0062
:10B47000019B9B4419F80C3C002B97D0084B2046AD
:10B4800003EB05310FF066FA06AB03EB850555F8C3
:10B49000083C01934FF0000309F80C3C454622E7B5
:10B4A000B87800207FB5974C974E984D204651F0C4
:10B4B0009DFE2046964C9749324651F091FE9649A2
:10B4C0002046FFF7CFFD954904F11800FFF7CAFDAC
:10B4D000934904F13000FFF7C5FD924904F148009B
:10B4E000FFF7C0FD294604F16000FFF7BBFD2946C8
:10B4F00004F17800FFF7B6FD294604F19000FFF74C
:10B50000B1FD294604F1A800FFF7ACFD294604F17E
:10B51000C000FFF7A7FD294604F1D800FFF7A2FD00
:10B52000814904F1F000FFF79DFD804904F5847026
:10B53000FFF798FD7E4904F59070FFF793FD7D4974
:10B5400004F59C70FFF78EFD294604F5A870FFF7FF
:10B5500089FD294604F5B470FFF784FD294604F5FA
:10B56000C070FFF77FFD294604F5CC70FFF77AFD28
:10B57000294604F5D870FFF775FD294604F5E470F7
:10B58000FFF770FD6C4904F5F070FFF76BFD6B4938
:10B5900004F5FC70FFF766FD694904F50470FFF7D8
:10B5A00061FD684904F50A70FFF75CFD294604F562
:10B5B0001070FFF757FD294604F51670FFF752FD8E
:10B5C000294604F51C70FFF74DFD294604F522704D
:10B5D000FFF748FD294604F52870FFF743FD29468B
:10B5E00004F52E70FFF73EFD574904F53470FFF760
:10B5F00039FD564904F53A70FFF734FD544904F516
:10B600004070FFF72FFD534904F54670FFF72AFD00
:10B61000294604F54C70FFF725FD294604F55270C4
:10B62000FFF720FD294604F55870FFF71BFD29465A
:10B6300004F55E70FFF716FD294604F56470FFF708
:10B6400011FD294604F56A70FFF70CFD424904F527
:10B650007070FFF707FD414904F57670FFF702FDB2
:10B660003F4904F57C70FFF7FDFC3E4904F581601D
:10B67000FFF7F8FC294604F58460FFF7F3FC294640
:10B6800004F58760FFF7EEFC294604F58A60FFF7B2
:10B69000E9FC294604F58D60FFF7E4FC294604F532
:10B6A0009060FFF7DFFC294604F593602E4C2F4D88
:10B6B000FFF7D8FC32462E49002051F091FD2D496C
:10B6C0002046FFF7CFFC32462B49204651F088FD3B
:10B6D00029231A22CDE90132284C082300930C2299
:10B6E00006230421284607F051FE29460122204660
:10B6F00007F018FB22493246204604B0BDE87040EE
:10B7000051F06EBD00990020006000207D120A00FB
:10B710000474002005D3070077120A007B120A0088
:10B720004DF30A00F1DC0A0082120A0085120A00B9
:10B73000D4160A00DE3E0B00C8120A0076C30A00C7
:10B740000BE20A0087120A00D0120A000C4C0A0011
:10B750003CD80A0009D90A00CD120A00A6130A0033
:10B7600089120A008E120A00C8980020BC98002096
:10B77000B9AF020099120A00896D0800E89800200C
:10B78000B5AF020010B5064C237843B1B921054886
:10B7900007F02AFD044807F049FA0023237010BD82
:10B7A000B4780020BC980020E898002000F108033D
:10B7B00073B50360044608460D466FF0BBFD0F28C5
:10B7C00005EB0006019007D9002201A920465BF095
:10B7D000B3F9019B2060A3603246294620685BF0E4
:10B7E00038FA019B2268636000212046D15402B0E0
:10B7F00070BD00002DE9F74FD0E90074E41BE310A1
:10B80000384C5C4314BF23460123E41806460D461A
:10B810009146A1EB0707344B5CD29C425AD8002CCE
:10B8200059D1A04618EB070002D049465BF092FAC6
:10B830003768C146BA4655450BD0B9F1000F03D061
:10B84000514648465BF086FA0AF1180A09F11809D0
:10B85000F1E7EA1B254B7568D2085A434FF01809E7
:10B8600022F0604209FB02F207EB020A4A4408EBAD
:10B870000209CB4652461F4695420CD0BBF1000F41
:10B8800005D01146584601925BF064FA019A1832CD
:10B890000BF1180BF0E7A5EB0A05ED087D4325F049
:10B8A0006045182303FB0595D6E90079B94504D016
:10B8B00038465BF05BF91837F8E7306808B148F0B4
:10B8C00061FF182303FB0484C6E90085B46003B05C
:10B8D000BDE8F08F1C461820604348F04FFF8046BB
:10B8E000A0E700BFABAAAAAAAAAAAA0AABAAAA0A58
:10B8F00038B5D0E90135AB4204460A4607D013B14A
:10B9000018465BF027FA63681833636038BD194640
:10B91000FFF770FFFAE7000030B50D4699B000213F
:10B920004022C0E900118160044608A86DF053FE72
:10B930008A4902A8FFF73AFF02A92046FFF7D8FF7D
:10B9400002A85BF013F92B786BB9854902A8FFF7C1
:10B950002DFF02A92046FFF7CBFF02A85BF006F9F6
:10B96000204619B030BD2B7B7E4A402108A86EF0DE
:10B9700065FE08A902A8FFF719FF02A92046FFF7F4
:10B98000B7FF02A85BF0F2F86B7B774A402108A86A
:10B990006EF054FE08A902A8FFF708FF02A920468E
:10B9A000FFF7A6FF02A85BF0E1F8A8686CF062FA66
:10B9B0006E4ACDE90001402108A86EF03FFE08A9BB
:10B9C00002A8FFF7F3FE02A92046FFF791FF02A8A5
:10B9D0005BF0CCF8664902A8FFF7E8FE02A9204612
:10B9E000FFF786FF02A85BF0C1F8624902A8FFF7E3
:10B9F000DDFE02A92046FFF77BFF02A85BF0B6F848
:10BA00006B885D4A402108A86EF018FE08A902A8BC
:10BA1000FFF7CCFE02A92046FFF76AFF02A85BF001
:10BA2000A5F868686CF026FA544ACDE90001402177
:10BA300008A86EF003FE08A902A8FFF7B7FE02A946
:10BA40002046FFF755FF02A85BF090F8AB7B4C4A0D
:10BA5000402108A86EF0F2FD08A902A8FFF7A6FE93
:10BA600002A92046FFF744FF02A85BF07FF828698F
:10BA70006CF000FA434ACDE90001402108A86EF0BD
:10BA8000DDFD08A902A8FFF791FE02A92046FFF7F5
:10BA90002FFF02A85BF06AF868696CF0EBF93A4A8C
:10BAA000CDE90001402108A86EF0C8FD08A902A850
:10BAB000FFF77CFE02A92046FFF71AFF02A85BF001
:10BAC00055F82B4902A8FFF771FE02A92046FFF79F
:10BAD0000FFF02A85BF04AF82C4902A8FFF766FEA8
